:020000020000FC
:0200000015C029
:020020005BC0C3
:10002A0023C04FE744B947E047B948E048B986E0FA
:10003A0040E044BD42E045BD41E040936E0043E6E6
:10004A0040937C004BEE40937A0048E040937E0058
:10005A00E0E1F1E0A0E0B1E04BE0C8950D92319605
:10006A004A95D9F77894FFCF40917900A42E44ECB1
:10007A00B42EAB9C112D002D11D09E2D990F990FE6
:10008A00990F990F9695969596959695E694E69476
:10009A00E694E694592F6E2D7F2D189520E1FF24C2
:1000AA00EE24DD24FF27000F111FDD1CEE1CFF1CB0
:1000BA002A9509F40895E0E132913D5F33FD3083DA
:1000CA003081305D37FD3083ED30B1F7ECCF4F939F
:1000DA0040E048B9813049F0823071F0A72F4C9145
:1000EA0045B988B981E04F911895A52F4C9145B92A
:1000FA0088B982E04F911895A62F4C9145B988B9D5
:10010A0084E04F9118954079243019120278001032
:00000001FF
