:020000020000FC
:020000000EC030
:10001C0038C002E004BD05E005BD04EF07BD0FEFDD
:10002C0004B904E005BD01E000936E0000E004B9E2
:10003C000FEF01E005B90FEF0AB921E02BB911E080
:10004C0078941899FECF113039F010E0213021F05E
:10005C0026952BB908D0F5CF11E02038B1F3220F3B
:10006C002BB901D0EECF4FE338EC000000000000BC
:10007C0000000000000000003A95B9F74A95A1F77E
:0E008C00089509B100950078022B0BB9189564
:00000001FF
