:020000020000FC
:0400000015C075C0F2
:0200160064C0C4
:0200200043C0DB
:10002A0071C00FEF04B907E007B908E008B910E09A
:10003A0020E030E076E000E004BD02E005BD01E02A
:10004A0000936E0078940CE0009381000FE0009317
:10005A00890002E40093880002E000936F0003E045
:10006A000093690001E00DBB02E40093B00002E0D6
:10007A000093B10003E600937C000BEE00937A0034
:10008A0008E000937E007894E8E1F1E0A0E0B1E0B6
:10009A000BE0C8950D9231960A95D9F7FFCF0F93C9
:1000AA0000E008B9713049F0723071F0A62F0C9156
:1000BA0005B978B971E00F911895A42F0C9105B97B
:1000CA0078B972E00F911895A52F0C9105B978B9F6
:1000DA0074E00F911895412F522F632F10E020E002
:1000EA0030E0189513950AE01013189510E023953F
:1000FA002013189520E03395301318951AE02AE05A
:10010A003AE01895009179000093B300189580F1B0
:08011A004460312202F00020D4
:00000001FF
