:020000020000FC
:0200000012C02C
:10002400A8C002E00AB90093C00008E90093C10027
:100034000CE00093C40030E00FEF0AB98CD08BD0F1
:1000440000E20BB95A9A00005A98000079D000E2F5
:100054000BB95A9A00005A98000000E80BB95A9A52
:1000640000005A986DD000E00BB95A9A00005A98D3
:10007400000000EE0BB95A9A00005A9861D000E0D3
:100084000BB95A9A00005A98000000E60BB95A9A24
:1000940000005A9855D047D040E07894FFCFA52E61
:1000A400AA0CAA0CAA0CAA0C5695569556955695C8
:1000B400550F550F550F550F68E0560F0A2D68E080
:1000C400060F5BB95A9A00005A9800000BB95A9A65
:1000D40000005A9835D0089500E00BB95A9A0000F0
:1000E4005A98000000E20BB95A9A00005A9828D096
:1000F400089500E80BB95A9A00005A98000000E7E6
:100104000BB95A9A00005A981BD0089500EC0BB909
:100114005A9A00005A98000000E00BB95A9A00005D
:100124005A980ED0089500E00BB95A9A00005A98D4
:10013400000000E10BB95A9A00005A9801D00895C2
:1001440018EC0000000000000000000000000000A7
:100154001A95B9F7089528EC14E600000000000091
:1001640000000000000000001A95B9F72A95A1F7D5
:1001740008955091C6003395413021F0313131F06A
:100184008EDF1895313231F08ADF189541E0BEDFF9
:1001940086DF189540E030E0C6DF9EDF80DF1895EB
:00000001FF
