:020000020000FC
:0200000012C02C
:100024007BC002E00AB90093C00008E90093C10054
:100034000CE00093C40030E00FEF0AB95FD000E297
:100044000BB95A9A00005A9800004DD000E20BB93F
:100054005A9A00005A98000000E00BB95A9A00001E
:100064005A9841D000E00BB95A9A00005A980000FF
:1000740000EE0BB95A9A00005A9835D000E00BB93B
:100084005A9A00005A98000000E60BB95A9A0000E8
:100094005A9829D0A52EAA0CAA0CAA0CAA0C5695DB
:1000A400569556955695550F550F550F550F68E0B3
:1000B400560F0A2D68E0060F5BB95A9A00005A9849
:1000C40000000BB95A9A00005A980DD000E00BB901
:1000D4005A9A00005A98000000E20BB95A9A00009C
:1000E4005A9801D0FFCF18EC000000000000000077
:1000F4000000000000001A95B9F7089528EC14E6F2
:1001040000000000000000000000000000001A953C
:10011400B9F72A95A1F708955091C6003395432F56
:10012400413111F0B7DF1895432F473219F038E207
:10013400B1DF1895432F403511F0ACDF189538E244
:04014400A9DF189582
:00000001FF
