:020000020000FC
:0200000012C02C
:10002400A7C002E00AB90093C00008E90093C10028
:100034000CE00093C40030E00FEF0AB98BD08AD0F3
:1000440000E20BB95A9A00005A98000078D000E2F6
:100054000BB95A9A00005A98000000E80BB95A9A52
:1000640000005A986CD000E00BB95A9A00005A98D4
:10007400000000EE0BB95A9A00005A9860D000E0D4
:100084000BB95A9A00005A98000000E60BB95A9A24
:1000940000005A9854D046D07894FFCFA52EAA0CCD
:1000A400AA0CAA0CAA0C5695569556955695550F1A
:1000B400550F550F550F68E0560F0A2D68E0060FCF
:1000C4005BB95A9A00005A9800000BB95A9A00007A
:1000D4005A9835D0089500E00BB95A9A00005A98FE
:1000E400000000E20BB95A9A00005A9828D00895EB
:1000F40000E80BB95A9A00005A98000000E70BB9BF
:100104005A9A00005A981BD0089500EC0BB95A9AD9
:1001140000005A98000000E00BB95A9A00005A985F
:100124000ED0089500E00BB95A9A00005A980000C6
:1001340000E10BB95A9A00005A9801D0089518ECBE
:1001440000000000000000000000000000001A95FC
:10015400B9F7089528EC14E6000000000000000040
:100164000000000000001A95B9F72A95A1F7089538
:100174005091C6003395432F413119F08FDFD2DF00
:100184001895432F413221F038E2BFDF87DF1895FD
:10019400432F483311F082DF189530E0C3DF7EDF50
:0201A4001895AC
:00000001FF
