:020000020000FC
:0200000012C02C
:1000240095C002E00AB90093C00008E90093C1003A
:100034000CE00093C40030E00FEF0AB979D000E27D
:100044000BB95A9A00005A98000067D000E20BB925
:100054005A9A00005A98000000E00BB95A9A00001E
:100064005A985BD000E00BB95A9A00005A980000E5
:1000740000EE0BB95A9A00005A984FD000E00BB921
:100084005A9A00005A98000000E60BB95A9A0000E8
:100094005A9843D0A52EAA0CAA0CAA0CAA0C5695C1
:1000A400569556955695550F550F550F550F68E0B3
:1000B400560F0A2D68E0060F5BB95A9A00005A9849
:1000C40000000BB95A9A00005A9827D000E00BB9E7
:1000D4005A9A00005A98000000E20BB95A9A00009C
:1000E4005A981BD000E80BB95A9A00005A9800009D
:1000F40000E70BB95A9A00005A980FD0089500EC03
:100104000BB95A9A00005A98000000E10BB95A9AA8
:1001140000005A9802D00895FFCF18EC00000000A8
:10012400000000000000000000001A95B9F70895CF
:1001340028EC14E6000000000000000000000000AD
:1001440000001A95B9F72A95A1F708955091C600B1
:100154003395432F413111F09DDF1895432F4732DA
:1001640021F038E2CCDF96DF1895432F403511F0AB
:0C01740091DF189538E2B6DF8DDF18959A
:00000001FF
