:020000020000FC
:0400000010C05FC00D
:020016004EC0DA
:100020002DC00FE704B907E007B910E020E030E089
:1000300076E000E004BD02E005BD01E000936E0043
:1000400078940CE0009381000FE00093890002E4B3
:100050000093880002E000936F0003E000936900C2
:1000600001E00DBB7894E2EEF0E0A0E0B1E00BE03F
:10007000C8950D9231960A95D9F7FFCF0F9300E0FE
:1000800008B9713049F0723071F0A62F0C9105B9A2
:1000900078B971E00F911895A42F0C9105B978B932
:1000A00072E00F911895A52F0C9105B978B974E0FD
:1000B0000F911895412F522F632F10E020E030E070
:1000C000189513950AE01013189510E02395201346
:1000D000189520E03395301318951AE02AE03AE09D
:0C00E000189540792430191202780010A5
:00000001FF
