:020000020000FC
:0200000010C02E
:1000200030C00FE704B903E007B932E010E020E088
:1000300063E000E004BD02E005BD01E000936E0056
:100040007894E6E5F0E0A0E0B1E00AE0C8950D9212
:1000500031960A95D9F740792430191202780010A8
:100060000EE705B91DD013951A3011F019D0FBCF4A
:1000700010E023952A3011F013D0F5CF20E010D0F6
:10008000F2CF68B9323031F0A22F0C9105B938B9EE
:1000900032E01895A12F0C9105B938B931E01895C7
:1000A0005AEF48EC000000000000000000000000D3
:1000B0000000000000000000000000000000000040
:0C00C00000004A9579F75A9561F7089501
:00000001FF
