:020000020000FC
:0200000012C02C
:10002400F8C002E00AB90093C00008E90093C100D7
:100034000CE00093C40030E00FEF0AB9D1D0D0D067
:1000440000E20BB95A9A00005A980000C9D000E2A5
:100054000BB95A9A00005A98000000E80BB95A9A52
:1000640000005A98BDD000E00BB95A9A00005A9883
:10007400000000EE0BB95A9A00005A98B1D000E083
:100084000BB95A9A00005A98000000E60BB95A9A24
:1000940000005A98A5D097D040E071E4789401D03C
:1000A400FECF00EF04B90FE005B9CED080E003B174
:1000B4000F700E3041F00D3041F00B3041F007303D
:1000C40041F099D0089580E01AC084E018C088E017
:1000D40016C08CE014C071E4F4CF7DE4F2CF78E56F
:1000E400F0CF70E3EECF00E0800F18C001E0800F86
:1000F40015C002E0800F12C003E0800F0FC00FE0B4
:1001040004B900EF05B9A0D003B1007F003E59F354
:10011400003D61F3003B69F3003771F38C30D9F291
:100124008D30D9F28E30D9F28F30D9F2870F582F13
:1001340062D071D0C6CFA52EAA0CAA0CAA0CAA0C08
:100144005695569556955695550F550F550F550F6F
:1001540068E0560F0A2D68E0060F5BB95A9A000052
:100164005A9800000BB95A9A00005A9839D0089549
:1001740000E00BB95A9A00005A98000000E20BB94B
:100184005A9A00005A982CD0089500E80BB95A9A4C
:1001940000005A98000000E70BB95A9A00005A98D8
:1001A4001FD0089541D0089545D0089500EC0BB9AF
:1001B4005A9A00005A98000000E00BB95A9A0000BD
:1001C4005A980ED0089500E00BB95A9A00005A9834
:1001D400000000E10BB95A9A00005A9801D0089522
:1001E40018EC000000000000000000000000000007
:1001F4001A95B9F7089528EC14E6000000000000F1
:1002040000000000000000001A95B9F72A95A1F734
:1002140008955091C6003395413031F0313151F099
:100224005093C60088DF1895313241F05093C600D0
:1002340082DF189541E0BADF7EDF189540E030E0B8
:0E024400C2DF96DF78DF1895000000000895F5
:00000001FF
