:020000020000FC
:0200000015C029
:0200200081C09D
:10002A0029C04FE744B947E047B948E048B941E039
:10003A004BB946E04AB986E040E0C42E40E044BDF0
:10004A0042E045BD41E040936E0043EE40937C00A0
:10005A004BEE40937A0048E040937E00EEE6F1E0F2
:10006A00A0E0B1E04BE0C8950D9231964A95D9F7D8
:10007A007894FFCF40917900A42E49B14170D9F00C
:10008A0001D0189547E2B42EAB9C112D002D2CD02F
:10009A009E2D990F990F990F990F9695969596956A
:1000AA009695E694E694E694E694592F6E2D7F2D64
:1000BA0042E04BB9089547EDB42EAB9C112D002DAB
:1000CA0013D09E2D990F990F990F990F9695969582
:1000DA0096959695E694E694E694E694592F6E2DB5
:1000EA007F2D41E04BB9189520E1FF24EE24DD2451
:1000FA00FF27000F111FDD1CEE1CFF1C2A9509F4B7
:10010A000895E0E132913D5F33FD30833081305D07
:10011A0037FD3083ED30B1F7ECCF4F9340E048B96B
:10012A00813049F0823071F0A72F4C9145B988B9D6
:10013A0081E04F911895A52F4C9145B988B982E075
:10014A004F911895A62F4C9145B988B984E04F91E3
:10015A001895C02DD12D679722F44C2D4395C42EA6
:0E016A00FACF0895407924301912027800105F
:00000001FF
