:020000020000FC
:0400000010C03FC02D
:0200160044C0E4
:1000200046C00FE704B901E00BB907E007B90BE0E0
:10003000009381000DE30093890009E0009388009C
:1000400002E000936F0000E004BD02E005BD01E0A6
:1000500000936E007894E6E7F0E0A0E0B1E00AE0FB
:10006000C8950D9231960A95D9F710E020E030E05E
:1000700040E050E060E0407924301912027800102E
:10008000FFCF13951A3059F410E023952A3039F434
:1000900020E033953A3019F41AE02AE03AE0189556
:1000A000412F522F632F10E020E030E0189588B9DF
:1000B00007E008B9763049F0753071F0A32F0C9144
:1000C00005B978B976E00F911895A12F0C9105B973
:1000D00078B975E00F911895A22F0C9105B978B9F0
:0600E00073E00F9118957A
:00000001FF
